:020000040000FA
:10000000E80D2020B5010000B9010000BB0100008F
:1000100000000000000000000000000000000000E0
:10002000000000000000000000000000BD01000012
:100030000000000000000000BF010000C10100003E
:10004000C3010000ED1A0000C3010000C30100005D
:10005000C3010000C3010000C3010000C301000090
:1000600000000000C3010000C30100000000000008
:1000700000000000C3010000C30100003D33000088
:10008000C3010000C301000001330000C3010000F0
:10009000C3010000C30100000000000000000000D8
:1000A000C3010000C30100000000000000000000C8
:1000B000C301000000000000C3010000C3010000F4
:1000C00000F002F800F067F812A030C808382418D1
:1000D0002D18AC4201D100F05EF80FCCA246AB4621
:1000E0000CA730CF2D1B083F3F197C427F1E544484
:1000F0002D090426F441641EAC4201D300F04BF8F4
:100100000126334200D0FB1A3343984754465D46DC
:10011000DFE700003C5600005C56000000000000D5
:10012000103A02D378C878C1FAD8520701D330C840
:1001300030C101D504680C60704700000000000069
:100140007047000000000000002300240025002666
:10015000103A01D378C1FBD8520700D330C100D583
:100160000B60704710B5662902D103F069FD10BD20
:10017000642902D100F04AF810BD002010BD1FB55F
:1001800000F0FCFD04000020002103F0E9FBE0602A
:100190001FBD10B510BD01F0D9F91146FFF7EFFFF3
:1001A00003F0C6FA01F0F1F903B4FFF7F2FF03BC64
:1001B00003F044F906480047FEE7FEE7FEE7FEE7E6
:1001C000FEE7FEE703480449044A054B7047000078
:1001D000C1000000E8072020E80D2020E8092020C9
:1001E000E80920200FB41CB5074B06AA7B446946DA
:1001F0000090059800F095FD0020694600F0A4FDF0
:100200001CBC08BC04B01847590B0000F7B500250A
:1002100075291068009914A611D0C046C046002860
:1002200002DA404211A608E0009909688A0701D560
:100230000FA602E0490704D50EA6012501E0C0463D
:10024000C046009F0024243704E000F082FD3031D6
:100250003955641C0028F8D12B46324621460098B7
:1002600000F0F7FAFEBD0000000000002D000000C5
:100270002B00000020000000F3B50446002081B0F0
:1002800020622046E168884700287AD0252802D0DD
:100290006268A16871E0E16820460025884706464B
:1002A0000020E0610746A0612A2E0AD0304603F004
:1002B0004FFB002827D0B8000019303E009086611F
:1002C00019E00298BA00121902C891610290204602
:1002D000E1688847012F064617D1E06900281FDA38
:1002E000202085431CE000980A218069484300993A
:1002F0008019303888612046E1688847064603F057
:1003000027FB0028EFD1012F0AD02E2E08D120463E
:10031000E16888470646202005437F1C022FC3DB87
:10032000A069002803DA4042A06101200543E807E4
:1003300001D010208543002E23D0304641381928A3
:1003400003D80120C00205432036204625603146EF
:10035000029A1546FFF706FF00280BD0012806D0A9
:10036000ED1DE808C000083002908AE709E02D1D65
:10037000029586E762683046A1689047206A401C73
:100380007EE7206AFEBD000010B5044603E003F0DE
:10039000D3F8401C08D020780549641C0028F6D109
:1003A0000A2003F0C9F810BD0020C04310BD0000B2
:1003B000D405202001E004C0091F0429FBD28B07CB
:1003C00001D50280801CC90700D002707047002947
:1003D0000BD0C30702D00270401C491E022904D36F
:1003E000830702D50280801C891EE3E70022EEE726
:1003F0000022DFE7002203098B4273D3030A8B42FA
:1004000058D3030B8B423CD3030C8B4221D312E015
:1004100003460B437FD4002243088B4274D3030965
:100420008B425FD3030A8B4244D3030B8B4228D306
:10043000030C8B420DD30902FF2212BA030C8B422C
:1004400002D31212090265D0030B8B4219D300E0CC
:10045000090AC30B8B4201D3CB03C01A5241830B51
:100460008B4201D38B03C01A5241430B8B4201D301
:100470004B03C01A5241030B8B4201D30B03C01A2A
:100480005241C30A8B4201D3CB02C01A5241830AA4
:100490008B4201D38B02C01A5241430A8B4201D3D3
:1004A0004B02C01A5241030A8B4201D30B02C01AFD
:1004B0005241CDD2C3098B4201D3CB01C01A524164
:1004C00083098B4201D38B01C01A524143098B42ED
:1004D00001D34B01C01A524103098B4201D30B01D6
:1004E000C01A5241C3088B4201D3CB00C01A5241FB
:1004F00083088B4201D38B00C01A524143088B42C0
:1005000001D34B00C01A5241411A00D20146524158
:10051000104670475DE0CA0F00D04942031000D377
:10052000404253409C46002203098B422DD3030ACC
:100530008B4212D38901FC2212BA030A8B420CD3DC
:10054000890192118B4208D3890192118B4204D305
:1005500089013AD0921100E08909C3098B4201D385
:10056000CB01C01A524183098B4201D38B01C01ABF
:10057000524143098B4201D34B01C01A5241030936
:100580008B4201D30B01C01A5241C3088B4201D3E5
:10059000CB00C01A524183088B4201D38B00C01A92
:1005A0005241D9D243088B4201D34B00C01A524169
:1005B000411A00D201465241104663465B1001D3F6
:1005C0004042002B00D54942704763465B1000D380
:1005D000404201B50449002802DC491C084000E003
:1005E0000846C046C04602BDFFFFFF7F7047704708
:1005F000704700000121C9050123411842001B0674
:10060000D3185B0E0AD0C1100722D2068918400702
:100610005242D14201D5520089187047090208D5CB
:100620000146002A03D0C10FC907002070471046B9
:100630007047420202D00020024970470721090595
:100640000143F4E70000F87FF0B5FF252D04C6094B
:10065000C209FF2704462E400137CB093E434840DC
:100660002A402B400746002A6BD0002B69D0AA42B3
:1006700067D0AB4265D0002800DA32460125ED058F
:1006800029432C4309022002090AD21A4B0C7F2469
:10069000E31A434C000A7C44E35C7D2424041219D1
:1006A00014145B00A218884201D3521C00E04000E1
:1006B00049420C465C4324115C43DB016415E3189A
:1006C000040A5C43C502200D0C4644436419250A04
:1006D0005D432303EC0C0D46654300030019EB1842
:1006E0004C42A34201D35B18401CD4052018002BB8
:1006F00007D05B00C91804D3401C002901D1400871
:1007000040003F2189048A4209D3002A08DC1106EF
:10071000090F04D0032149074018C00FC007F0BDDE
:1007200001224100120689187F2252069142F6D218
:1007300005214907C84201D59010F0BDFF20C00532
:10074000F0BD002F00DA32461648AA4207D2AB426B
:1007500005D21902090E17D0F80FC007F0BDFF250A
:1007600063002D06AB42F9D84900A942F6D8AB4246
:1007700001D1A942F2D0A94201D1002101E06100DA
:100780004908D0050843F0BD1102090EFBD0FF2037
:100790000243D005F0BD0A460146104654E700006A
:1007A000B63500000000C07F10B501469E2400024F
:1007B000CA15A307002A02D01843002A04DBA21A94
:1007C000002A0CDDD04010BD1206120E01D14000EF
:1007D0004008A21A03D4D04040420028F3DDFF2293
:1007E00048001206904201D9002010BDC817C0432E
:1007F000584010BD1F22030C02D10F2200041CD050
:10080000030E01D10002083A030F01D10001121FAB
:10081000830F01D18000921E002801DB4000521E90
:10082000D2055118021251181922904004D3491CC4
:10083000002801D14908490008467047C10FC9077F
:1008400000D04042012292071143D3E701218907DA
:10085000D0E7FFB504460D4681B0243000902168F2
:10086000880604D51022E0699143216000E0012050
:10087000A84201DD471B00E000270498A1697A190E
:100880001018081AA0612078C00602D42046C0467D
:10089000C046002608E003986268A168805D904722
:1008A000206A401C761C206204988642F3DB207884
:1008B000C0060AD52046C046C04606E06268A16868
:1008C00030209047206A401C206238467F1E002856
:1008D000F4DC07E000986268A168405D9047206AF8
:1008E000401C206228466D1E0028F3DC2046C046CE
:1008F000C0462078000602D5022005B0F0BD0120D8
:10090000FBE70000FFB50C461E468FB003CA0890F7
:1009100009914F007D0D00D16D1E00210846002079
:10092000C0460321099A89050840002A03DA82009B
:10093000801840080840800D01280A9002DD002040
:10094000C0430A90089807430DD0F048F049281892
:1009500048430714189800281DD07542291E1DDD34
:100960000A9842421BE01898012802D0002030214A
:1009700004E00020F24305E02154401CB042FBDBC0
:1009800030460022189B002121540F998B600A6089
:10099000486013B0F0BDBD1B6D1CDFE70A9A00294B
:1009A00000DA69420BA800F06FFA0BAB07CB03AB80
:1009B00007C30899099800F0D3FA6B4607C30146AC
:1009C000D4480918002D00910BDDD24903980A9AEA
:1009D00049424018002303A90390684600F030FD07
:1009E00008E003990A9A0023081803A903906846AF
:1009F00000F0D0FC6B4607C30004000C03D00020BD
:100A0000C043410800E01046189A002A03D0002293
:100A1000009215461EE0751E05D400F0B3F9303281
:100A200062556D1EF9D501220843079602D00022B7
:100A30007F1C04E02078302801D100227F1E002A8C
:100A4000069787D01EE0112D07DA00F09BF93032AF
:100A500062556D1C02460A43F5D1084303D0009845
:100A6000002819D00EE00021681E05E0235C625CBE
:100A700063542254401E491C8142F7DBA81B401ED0
:100A800007950690079A18990020A0540F98079B85
:100A9000069A81600CC07CE711260020189059E767
:100AA000D21DF0B50D460446D10893B0C90003C964
:100AB0000C900D9102F01EFF02460D98C00F01D060
:100AC0002D2007E02068810701D52B2002E0400798
:100AD000C00F4001032A0F9001D0072A05DB03460F
:100AE0002946204600F08CF90EE12078800601D5D9
:100AF000E76900E006272846652D04D0662814D053
:100B0000672D69D12DE00020112F009001DB11230A
:100B100000E07B1C0CAA03A910A8FFF7F3FE1199B3
:100B2000002610987D1C0E9142E001203B460CAA45
:100B3000C0070B900120009003A910A8FFF7E2FE68
:100B4000119D12981099002600280E9501D1781C4D
:100B50000D18781B02D446427D1C761EE81B0090BF
:100B60003AE0012F00DA01270020112F009001DD6B
:100B7000112300E03B460CAA03A910A8FFF7C2FE10
:100B800011993D46109800260E91217809070BD443
:100B90000E99A94200DA0D4603A9012D04DD4A1978
:100BA000203AD27F302A06D0B84201DA011D04DA99
:100BB000012100910FE06D1EEFE7002802DC86198D
:100BC0002D1A03E0411CA94200DD0D46801B401C8C
:100BD00000900120C0070B902078000705D40098F2
:100BE000A84202DB0020C043009069460020C87282
:100BF0000B98012102AF0337C907884225D0022094
:100C000010902B2011900B9800280BDA40420B908B
:100C10002D20119006E00B9800F09BF830317F1EDC
:100C20000B9039701099481E00291090F3DC0B9836
:100C30000028F0D111987F1E38702088000501D55A
:100C4000452000E065207F1E387001A8C01BC01D34
:100C50000B900F98002800D0012041190098C01770
:100C600009180B980818A169081A401EA06120787D
:100C7000C00602D42046C046C0460F98002805D0C2
:100C80006268A1689047206A401C20622078C006F4
:100C900025D52046C046C04621E0002E07DB0E9831
:100CA000B04204DD03A86268805DA16802E062686A
:100CB000A16830209047206A761C401C2062009872
:100CC000401E002800900AD100F058F8C068626801
:100CD0000168405CA1689047206A401C2062284659
:100CE0006D1E0028D9DC07E062683878A1687F1C97
:100CF0009047206A401C20620B99481E00290B90E7
:100D0000F2DC2046C046C046032042E601FCFFFF5D
:100D1000104D0000E1DFFFFF01694A1C0261087805
:100D2000704700B58FB002910021059105490193EC
:100D300079440391114604906846FFF79DFA0FB07D
:100D400000BD0000E5FFFFFF0A681070521C0A603A
:100D5000704701468008081A02091018020A101884
:100D6000020C1018C008820012185200891A01E003
:100D7000401C0A390A29FBD270470000004870471E
:100D8000380020200B4670B50246890780080843CA
:100D900019469D08141AA9412509080705430809A1
:100DA0002C194841250A01060D43010A2C1941411D
:100DB000200C0D0428430D0C00194D410021401951
:100DC0004D41C00869070843E908840F8D00254399
:100DD000840024184D4124196D41121BAB4107E0DA
:100DE0000925ED432C11521963410024401C614137
:100DF0001C460A250026551BB441F1D270BD0000E7
:100E0000F8B51F46044601230068DB0203260146AD
:100E10001840072A05DB002801D017A506E017A512
:100E200004E0002801D016A500E016A5102081439B
:100E30002160A069C01E002FA06101D0401EA061EA
:100E40002046C046C046002F09D038466268A168D7
:100E50009047206A401C2062C01C206206E0206A85
:100E6000FAE762682878A1686D1C9047761EF8D270
:100E70002046C046C046F8BD4E414E006E616E0031
:100E8000494E4600696E6600F7B516468AB033488B
:100E900078446C4603467C33C06F5A689B680DC427
:100EA0002E487844763003AC0DC80DC43720C001FD
:100EB000081837211B30FFF7ABFA05460C46803D7A
:100EC0001B3C02D56442012000E00020002709906D
:100ED00010E0E0070CD00C202049784379443246DA
:100EE0004C3941186846012300F054FA6B4607C399
:100EF00064107F1C002CECD1184F7F442E3F16E06D
:100F0000E80712D02001C0190EC806910893079275
:100F10000068F04201D1981908903246012306A9D1
:100F200003A800F037FA03AB07C36D10641C002D53
:100F3000E6D10998002806D032466946012303A865
:100F400000F07EFA05E001233246694603A800F06E
:100F500021FA0A9B07C30DB0F0BD0000FC2D000074
:100F6000034640000A4610B5400D0BD00121C907C9
:100F70000F24A40200191C0364082143540D2143CB
:100F8000D20207E000210120F2E7D40F49002143FB
:100F90005200401E0029F8DADB0FDB07184310BDB2
:100FA000FFB50D46144685B04868516802F08AFCCA
:100FB00000910190A868A16802F084FC029103905E
:100FC000A868616802F07EFC029A121882420292BE
:100FD00001D2012000E00020019A0B18D21800284D
:100FE000019202D08A4202D903E08A4201D2012052
:100FF00000E000200099081800906868A16802F0DD
:1010000061FC029A12188242029201D2012000E091
:101010000020019A0B18D2180028019202D08A42AF
:1010200002D903E08A4201D2012000E000200099A9
:1010300008180090286821684000490040084908C5
:101040004018FA49471814E001994000C90F0843B5
:101050000090019802994000C90F0843019002983E
:1010600003994000C90F08430290039840007F1E77
:10107000039000980028E7DA0898002801D0EC4E89
:1010800000E00026B74201DA012000E0002000283D
:1010900004902AD0F71BF806C00E15D0029B202121
:1010A000091A039A8B401A430392029A019BC24089
:1010B0008B401A430292019A009BC2408B400099D8
:1010C0001A430192C14000917B110DD06F4603205D
:1010D000C11A03D500218200B95003E08A008100C3
:1010E000BA587A50401EF3D5374603980299002823
:1010F00000D00120014308980291002808460CD036
:10110000002800D001200199019A490508430121D6
:10111000D20AC902D202019200E001210E9B0122F3
:10112000D207012B02D0002B03D013E0002807D1F7
:1011300020E0904204D890420CD1019B0B4209D090
:10114000019B5918019105D10099491C009101D1C9
:101150007F1C009200280DD0102108460020C046B8
:101160000498002806D00F98002803D008210846CC
:101170000020C04628682168019B009A4840C10FA2
:101180000598C90739430EC009B0F0BDFFB587B057
:10119000099A089808995368926840688968964641
:1011A0000022039317469446089A12685300099A3E
:1011B0005B081268520052089A1A9E4BD4180A9A79
:1011C000002A01D0352200E04022069200220123AD
:1011D00015460492DB07059324E0002D05D17546E2
:1011E0000346039E4D1BB34109D375466646039BD8
:1011F000491B049D9841059B7519AC465F416346A8
:101200003B4308D0059B049EDD0776082E435B0810
:101210000496059301E0521E641EC50FED074918A0
:101220004041521C069B9A42D7DB002D04D17546E3
:10123000039A6B1A824101D203200CE0039A0B46F9
:101240006B404240134303D0014303D0012002E02E
:10125000022000E0002061460191002100970291E8
:101260000A99002905D0614640020143704B019163
:1012700002E08007002302909C4201DA012000E096
:10128000002007003AD01A1BD006C00E15D0029DD0
:101290002021019C091AC5408C402543029C8C40AA
:1012A00000D001242543019C0295009DC4408D403F
:1012B00000992C430194C140009154111DD06D46FA
:1012C0000221002202290CD10320001B07E0002884
:1012D00004DB8600AE59002E00D00122401C0328FA
:1012E000F5DB081B02D588002A5004E0800028584E
:1012F00010438A00A850491EE3D51C460A980028CE
:1013000002980CD0002800D001200199019A4905CB
:1013100008430121D20AC902D202019200E0012150
:10132000109B0122D207012B02D0002B03D013E027
:10133000002807D11FE0904204D890420CD1019BB5
:101340000B4209D0019B5918019105D10099491C04
:10135000009101D1641C009200280CD01021084695
:101360000020C046002F06D01198002803D0082185
:1013700008460020C04608980999019A009B006819
:1013800009684840C10F0798C907214382600AC015
:101390000BB0F0BD00B585B0019300920A4601463E
:1013A000002302A8FFF7FCFD02A807C805B000BD96
:1013B000FFB50A461F4685B00799019301230091A6
:1013C000014602A8FFF7ECFD02990398049ECA0F9C
:1013D0004900D20700920F22490892028C1A00217C
:1013E000002800DB0C46450013486D08844214D3E6
:1013F000079A002A04DA441E0026104DF64302E044
:1014000004460D460E46102108460020C046002F17
:1014100003D0042108460020C0462005E90A0843FD
:10142000009908436905F20A1143ADE602C0FFFFC7
:10143000013C0000FF3F0000FF070000FFFFFF7FAF
:1014400000B585B0019300920A460146002302A828
:10145000FFF79CFE02A807C8A8E7FFB50A461F468B
:1014600085B00799019301230091014602A8FFF777
:101470008DFE02990398049ECA0F4900D20700927C
:101480000F22490892028C1A0021002800DB0C462A
:10149000450011486D08844214D3079A002A04DAE3
:1014A000441E00260D4DF64302E004460D460E464E
:1014B000102108460020C046002F03D00421084612
:1014C0000020C0462005E90A084300990843690541
:1014D000F20A114358E60000FF070000FFFFFF7FFC
:1014E00010B5FF231B0644009C421DD84C009C42B3
:1014F0001AD80346124A0B4307D4401A02D3EFF31B
:10150000008010BDEFF3008010BD081A03D3EFF385
:101510000080904305E0EFF3008001219043C9076C
:10152000084380F3008810BD0D231B041A4204D029
:101530001146002000F08AF810BD00F09FF810BDA1
:101540000000009000487047180020207546FFF703
:10155000F9FFAE46050069465346C008C0008546FF
:1015600018B020B5FEF72EFE60BCB6460026002758
:10157000C0C5C0C5C0C5C0C5C0C5C0C5C0C5C0C543
:10158000403D490849008D46704710B50446C046A5
:10159000C0462046FEF708FE10BD000082078B07FC
:1015A0009A423FD170B5920F0AD0032402780B788B
:1015B000401C491C002A33D09A4231D12042F5D137
:1015C000214EF40104C808C9951B9543254018D144
:1015D0009A420FD104C808C9951B9543254010D1E4
:1015E0009A4207D104C808C9951B9543254008D1E4
:1015F0009A42E7D012BA1BBA01209A4200D2404266
:1016000070BD12BA1BBA2DBA18241000E0401900A0
:10161000E140401A05D12E00E64002D1083CF4D149
:10162000D01A70BD02780B78401C491C002A09D0E2
:101630009A4207D102780B78401C491C002A01D03D
:101640009A42EFD0D01A704701010101C80212D5A9
:101650004803400F002804D0C803C043012188403C
:101660007047EFF3008000010009032109070843D8
:1016700080F30088704700207047000010B50248D2
:1016800000F004F810BD00000000C07F10B50C464B
:101690001107090F092904D00A290AD008290CD1F9
:1016A00004E011460820FFF7D1FF06E0510606D5F9
:1016B00001E0510601D50120C007214610BDD10629
:1016C00007D501010909CC084907000E00060443AB
:1016D00009E0410F20024907000A0143200E0006DD
:1016E0001D22D14101430846E7E70000F0B581B073
:1016F00001F034FF354CC11703C4083C01F032FF40
:10170000334DC11703C5083D01F006FF314800689D
:101710003149086031480068FFF746F830490880D1
:101720003048006821682A6801F026FE04462E48E9
:10173000046000272D48C05FFFF780F805462C485D
:101740000068FFF77BF806462A480068294602F041
:10175000B7F9054628480068314602F0B1F9294634
:1017600002F014F9FFF720F8244908606042FFF7FF
:1017700065F801462248006802F008F90446184856
:10178000C05FFFF75BF8054613480068214602F08A
:10179000EFF904461B480068294602F091F9054616
:1017A00019480068214602F08BF9294602F0EEF84C
:1017B000FEF7FAFF154908601549086015490860E9
:1017C000014601F045FD01B0F0BDC0467800202083
:1017D0008000202094052020D4072020DC07202032
:1017E000AC072020A8052020C8052020AE07202017
:1017F000AC052020B0052020B4052020B80520200D
:1018000000002020080020200C002020CC052020F3
:10181000880020208C002020811E091F00BFFCD2E0
:10182000704770B50A780C231A4001242403051967
:101830006E689E43B2186A604978072211400359C6
:1018400093435918015170BDF0B5764A8218394B4F
:10185000C31808794E79384D744C002E23D02028B7
:1018600004D00526F601002803D003E0334E0028FB
:1018700000D18826576F2F4037435767976F2F4007
:1018800037439767566B26405663966B26409663A0
:101890000026566596658F26F6435F6837405F6081
:1018A0009F6837409F608E790968202807D00028FC
:1018B00015D1491E5160D76E2F40882115E0491E71
:1018C0005160D16E29401D4F3943D166116F2940B7
:1018D0003943116701214907194D174609E04908A5
:1018E0005160D76E2F400521C9010F43D7661746B7
:1018F00070373C682C400C433C60D16A4B4C214013
:10190000D162116B214011630021D16411658F21D7
:10191000C943D46F0C40D4671C680C401C6006435C
:10192000BD2030401168074B0B40C018801C106070
:10193000F0BDC0468418000024493E0001040000A8
:10194000FFFFFFCF4000FFCFB0B5364A80184A688E
:1019500042600A78222A57D8930001A4E3589F4690
:10196000FF190000091A0000FF190000091A000001
:10197000091A0000091A0000091A0000091A0000DB
:10198000091A0000091A0000091A0000091A0000CB
:10199000091A0000091A0000091A0000091A0000BB
:1019A000ED190000091A0000ED190000091A0000E5
:1019B000091A0000091A0000091A0000091A00009B
:1019C000091A0000091A0000091A0000091A00008B
:1019D000091A0000091A0000091A0000091A00007B
:1019E000ED190000091A0000ED19000003231B0780
:1019F00004689C4301235B07E318036004E00323AE
:101A00001B0704689C4304600B69C360CB68064CE9
:101A10001C40C36A054D1D402B19C362097A11434E
:101A20000160B0BD04180000777702008888FDFFD0
:101A300010B507239B04194092008018024A84586D
:101A40009C436118815010BD3018000010B5029CF5
:101A5000A400001911431943014A815010BDC0462A
:101A60005018000092008018014A81507047C0460B
:101A70001018000010B50122120383180C789C6026
:101A80004B7883508978014A815010BD0C110000B9
:101A9000B0B51122120283580124A34383508B78DE
:101AA0000C881C438B882343094C1C408358094DE8
:101AB0001D402B1983508B79CC791C43097A214323
:101AC0007E231940801842689A4351184160B0BD86
:101AD00018670000E798FDFF10B501221203831874
:101AE0000C789C604978815010BD0000B0B5284842
:101AF0000146103909684A0614D40A061FD4012287
:101B0000D3024C0528D419403CD0940221490D68D9
:101B10002149CA688B6825422FD100245B1C8B6049
:101B200062412EE01B490C681B494A680B68240679
:101B30000CD400245B1E0B60A2414A6022E01549D0
:101B40000C6815494A680B686406F2D400245B1CD3
:101B50000B6062414A6015E00E490D680E49CA6883
:101B60008C681D4204D10023641E8C609A4108E0F9
:101B70000023641C8C605A4103E000245B1E8B60D0
:101B8000A241CA603321890102680A430260B0BDE4
:101B900048300A4080330A40B0072020B0B50248E0
:101BA0000346F833802401E09000202000211970C2
:101BB0001A46083A11701A46103A11701A46183A25
:101BC00011701A46203A11701A46283A11701A46B6
:101BD000303A11701A46383A11701A46403A11706C
:101BE0001A46483A11701A46503A11701A46583A35
:101BF00011701A46603A11701A46683A11701A4606
:101C0000703A11701A46783A11701A46803A11707B
:101C10001A46883A11701A46903A11701A46983A44
:101C200011701A46A03A11701A46A83A11701A4655
:101C3000B03A11701A46B83A11701A46C03A11708B
:101C40001A46C83A11701A46D03A11701A46D83A54
:101C500011701A46E03A11701A46E83A11701A46A5
:101C6000F03A11701A46F83A1170012212029B18CC
:101C7000203C9BD10446F934802321702546083D41
:101C800029702546103D29702546183D29702546A6
:101C9000203D29702546283D29702546303D297074
:101CA0002546383D29702546403D29702546483D4A
:101CB00029702546503D29702546583D29702546F6
:101CC000603D29702546683D29702546703D297084
:101CD0002546783D29702546803D29702546883D5A
:101CE00029702546903D29702546983D2970254646
:101CF000A03D29702546A83D29702546B03D297094
:101D00002546B83D29702546C03D29702546C83D69
:101D100029702546D03D29702546D83D2970254695
:101D2000E03D29702546E83D29702546F03D2970A3
:101D3000A518F83C2170203B2C469ED10446FA346D
:101D4000802321702546083D29702546103D2970C5
:101D50002546183D29702546203D29702546283DF9
:101D600029702546303D29702546383D2970254685
:101D7000403D29702546483D29702546503D297033
:101D80002546583D29702546603D29702546683D09
:101D900029702546703D29702546783D29702546D5
:101DA000803D29702546883D29702546903D297043
:101DB0002546983D29702546A03D29702546A83D19
:101DC00029702546B03D29702546B83D2970254625
:101DD000C03D29702546C83D29702546D03D297053
:101DE0002546D83D29702546E03D29702546E83D29
:101DF00029702546F03D2970A518F83C2170203B3C
:101E00002C469ED10446FB34802321702546083D94
:101E100029702546103D29702546183D2970254614
:101E2000203D29702546283D29702546303D2970E2
:101E30002546383D29702546403D29702546483DB8
:101E400029702546503D29702546583D2970254664
:101E5000603D29702546683D29702546703D2970F2
:101E60002546783D29702546803D29702546883DC8
:101E700029702546903D29702546983D29702546B4
:101E8000A03D29702546A83D29702546B03D297002
:101E90002546B83D29702546C03D29702546C83DD8
:101EA00029702546D03D29702546D83D2970254604
:101EB000E03D29702546E83D29702546F03D297012
:101EC000A518F83C2170203B2C469ED10446FC34DA
:101ED000802321702546083D29702546103D297034
:101EE0002546183D29702546203D29702546283D68
:101EF00029702546303D29702546383D29702546F4
:101F0000403D29702546483D29702546503D2970A1
:101F10002546583D29702546603D29702546683D77
:101F200029702546703D29702546783D2970254643
:101F3000803D29702546883D29702546903D2970B1
:101F40002546983D29702546A03D29702546A83D87
:101F500029702546B03D29702546B83D2970254693
:101F6000C03D29702546C83D29702546D03D2970C1
:101F70002546D83D29702546E03D29702546E83D97
:101F800029702546F03D2970A518F83C2170203BAA
:101F90002C469ED10446FD34802321702546083D01
:101FA00029702546103D29702546183D2970254683
:101FB000203D29702546283D29702546303D297051
:101FC0002546383D29702546403D29702546483D27
:101FD00029702546503D29702546583D29702546D3
:101FE000603D29702546683D29702546703D297061
:101FF0002546783D29702546803D29702546883D37
:1020000029702546903D29702546983D2970254622
:10201000A03D29702546A83D29702546B03D297070
:102020002546B83D29702546C03D29702546C83D46
:1020300029702546D03D29702546D83D2970254672
:10204000E03D29702546E83D29702546F03D297080
:10205000A518F83C2170203B2C469ED10446FE3446
:10206000802321702546083D29702546103D2970A2
:102070002546183D29702546203D29702546283DD6
:1020800029702546303D29702546383D2970254662
:10209000403D29702546483D29702546503D297010
:1020A0002546583D29702546603D29702546683DE6
:1020B00029702546703D29702546783D29702546B2
:1020C000803D29702546883D29702546903D297020
:1020D0002546983D29702546A03D29702546A83DF6
:1020E00029702546B03D29702546B83D2970254602
:1020F000C03D29702546C83D29702546D03D297030
:102100002546D83D29702546E03D29702546E83D05
:1021100029702546F03D2970A518F83C2170203B18
:102120002C469ED1FF30802301700446083C21706C
:102130000446103C21700446183C21700446203CA3
:1021400021700446283C21700446303C217004462E
:10215000383C21700446403C21700446483C2170C4
:102160000446503C21700446583C21700446603CB3
:1021700021700446683C21700446703C217004467E
:10218000783C21700446803C21700446883C2170D4
:102190000446903C21700446983C21700446A03CC3
:1021A00021700446A83C21700446B03C21700446CE
:1021B000B83C21700446C03C21700446C83C2170E4
:1021C0000446D03C21700446D83C21700446E03CD3
:1021D00021700446E83C21700446F03C21708418CC
:1021E000F8380170203B20469ED100F09FFBB0BD27
:1021F000F0B581B0AE200024214600F071FD2046EC
:10220000214600F06DFD1020214600F069FD4027B9
:102210003846214600F064FD8120214600F060FD33
:10222000CF20214600F05CFDA120214600F058FDA2
:10223000C820214600F054FDA6263046214600F075
:102240004FFDA820214600F04BFD3F20214600F025
:1022500047FDD320214600F043FD2046214600F0F3
:102260003FFDD520214600F03BFD80252846214634
:1022700000F036FDD920214600F032FDF120214644
:1022800000F02EFDDA20214600F02AFD1220214622
:1022900000F026FDDB20214600F022FD38462146D5
:1022A00000F01EFD2020214600F01AFD02202146EC
:1022B00000F016FD8D20214600F012FD142021466D
:1022C00000F00EFDA420214600F00AFD3046214614
:1022D00000F006FD01480246F83201E0900020209F
:1022E0001470114608390C70114610390C701146E3
:1022F00018390C70114620390C70114628390C70B1
:10230000114630390C70114638390C70114640397D
:102310000C70114648390C70114650390C7011463A
:1023200058390C70114660390C70114668390C70C0
:10233000114670390C70114678390C70114680398D
:102340000C70114688390C70114690390C7011468A
:1023500098390C701146A0390C701146A8390C70D0
:102360001146B0390C701146B8390C701146C0399D
:102370000C701146C8390C701146D0390C701146DA
:10238000D8390C701146E0390C701146E8390C70E0
:102390001146F0390C701146F8390C700121090210
:1023A0005218203D9CD10346F93380221C701D46F3
:1023B000083D2C701D46103D2C701D46183D2C709C
:1023C0001D46203D2C701D46283D2C701D46303D7D
:1023D0002C701D46383D2C701D46403D2C701D460E
:1023E000483D2C701D46503D2C701D46583D2C70AC
:1023F0001D46603D2C701D46683D2C701D46703D8D
:102400002C701D46783D2C701D46803D2C701D465D
:10241000883D2C701D46903D2C701D46983D2C70BB
:102420001D46A03D2C701D46A83D2C701D46B03D9C
:102430002C701D46B83D2C701D46C03D2C701D46AD
:10244000C83D2C701D46D03D2C701D46D83D2C70CB
:102450001D46E03D2C701D46E83D2C701D46F03DAC
:102460002C705D18F83B1C70203A2B469ED1034619
:10247000FA3380221C701D46083D2C701D46103D0D
:102480002C701D46183D2C701D46203D2C701D469D
:10249000283D2C701D46303D2C701D46383D2C705B
:1024A0001D46403D2C701D46483D2C701D46503D3C
:1024B0002C701D46583D2C701D46603D2C701D46ED
:1024C000683D2C701D46703D2C701D46783D2C706B
:1024D0001D46803D2C701D46883D2C701D46903D4C
:1024E0002C701D46983D2C701D46A03D2C701D463D
:1024F000A83D2C701D46B03D2C701D46B83D2C707B
:102500001D46C03D2C701D46C83D2C701D46D03D5B
:102510002C701D46D83D2C701D46E03D2C701D468C
:10252000E83D2C701D46F03D2C705D18F83B1C708A
:10253000203A2B469ED10346FB3380221C701D4659
:10254000083D2C701D46103D2C701D46183D2C700A
:102550001D46203D2C701D46283D2C701D46303DEB
:102560002C701D46383D2C701D46403D2C701D467C
:10257000483D2C701D46503D2C701D46583D2C701A
:102580001D46603D2C701D46683D2C701D46703DFB
:102590002C701D46783D2C701D46803D2C701D46CC
:1025A000883D2C701D46903D2C701D46983D2C702A
:1025B0001D46A03D2C701D46A83D2C701D46B03D0B
:1025C0002C701D46B83D2C701D46C03D2C701D461C
:1025D000C83D2C701D46D03D2C701D46D83D2C703A
:1025E0001D46E03D2C701D46E83D2C701D46F03D1B
:1025F0002C705D18F83B1C70203A2B469ED1034688
:10260000FC3380221C701D46083D2C701D46103D79
:102610002C701D46183D2C701D46203D2C701D460B
:10262000283D2C701D46303D2C701D46383D2C70C9
:102630001D46403D2C701D46483D2C701D46503DAA
:102640002C701D46583D2C701D46603D2C701D465B
:10265000683D2C701D46703D2C701D46783D2C70D9
:102660001D46803D2C701D46883D2C701D46903DBA
:102670002C701D46983D2C701D46A03D2C701D46AB
:10268000A83D2C701D46B03D2C701D46B83D2C70E9
:102690001D46C03D2C701D46C83D2C701D46D03DCA
:1026A0002C701D46D83D2C701D46E03D2C701D46FB
:1026B000E83D2C701D46F03D2C705D18F83B1C70F9
:1026C000203A2B469ED10346FD3380221C701D46C6
:1026D000083D2C701D46103D2C701D46183D2C7079
:1026E0001D46203D2C701D46283D2C701D46303D5A
:1026F0002C701D46383D2C701D46403D2C701D46EB
:10270000483D2C701D46503D2C701D46583D2C7088
:102710001D46603D2C701D46683D2C701D46703D69
:102720002C701D46783D2C701D46803D2C701D463A
:10273000883D2C701D46903D2C701D46983D2C7098
:102740001D46A03D2C701D46A83D2C701D46B03D79
:102750002C701D46B83D2C701D46C03D2C701D468A
:10276000C83D2C701D46D03D2C701D46D83D2C70A8
:102770001D46E03D2C701D46E83D2C701D46F03D89
:102780002C705D18F83B1C70203A2B469ED10346F6
:10279000FE3380221C701D46083D2C701D46103DE6
:1027A0002C701D46183D2C701D46203D2C701D467A
:1027B000283D2C701D46303D2C701D46383D2C7038
:1027C0001D46403D2C701D46483D2C701D46503D19
:1027D0002C701D46583D2C701D46603D2C701D46CA
:1027E000683D2C701D46703D2C701D46783D2C7048
:1027F0001D46803D2C701D46883D2C701D46903D29
:102800002C701D46983D2C701D46A03D2C701D4619
:10281000A83D2C701D46B03D2C701D46B83D2C7057
:102820001D46C03D2C701D46C83D2C701D46D03D38
:102830002C701D46D83D2C701D46E03D2C701D4669
:10284000E83D2C701D46F03D2C705D18F83B1C7067
:10285000203A2B469ED1FF30802204700346083B6D
:102860001C700346103B1C700346183B1C7003464B
:10287000203B1C700346283B1C700346303B1C70F9
:102880000346383B1C700346403B1C700346483BE4
:102890001C700346503B1C700346583B1C7003469B
:1028A000603B1C700346683B1C700346703B1C7009
:1028B0000346783B1C700346803B1C700346883BF4
:1028C0001C700346903B1C700346983B1C700346EB
:1028D000A03B1C700346A83B1C700346B03B1C7019
:1028E0000346B83B1C700346C03B1C700346C83B04
:1028F0001C700346D03B1C700346D83B1C7003463B
:10290000E03B1C700346E83B1C700346F03B1C7028
:102910004318F8380470203A18469ED100F006F8A3
:10292000AF20002100F0DCF901B0F0BDF0B585B0BA
:10293000012001020491400203900020D34F029035
:102940005038C0B20024214600F0CAF92046214682
:1029500000F0C6F91020214600F0C2F9049D31486C
:102960000560039E06600A24204600F0ADFD2D4858
:102970000561204600F0A8FD2A480661204600F0C7
:10298000A3FD782000F0D8FBFC480560204600F04D
:102990009BFDFA480660204600F096FDF748066168
:1029A000204600F091FD402000F0C6FBF348056092
:1029B000204600F089FDF14806600546204600F0FB
:1029C00083FD2E61204600F07FFD80250197387839
:1029D00000F0B2FB0498E94908600A24204600F0A0
:1029E00073FD039EE5480660204600F06DFDE34858
:1029F0000661204600F068FD6D1E0837002DE6D107
:102A0000049CDE4D2C61039828600A2000F05CFDD8
:102A10002C60019F7F1C0298401C08288FD105B0B4
:102A2000F0BDC04690320A40F0B58BB00A910390D9
:102A30000620082B04460AD05C07D908002C00D0D9
:102A4000491C5C084C43E4B2002C00D113E1109FF8
:102A5000203AD1B20091484388490A185808019099
:102A60000025039E0293089709E00646079C049AF6
:102A7000069D641E521C6D1C002C00D1FBE0082B2F
:102A8000104615D0182B09D0102B0CD00C2B00D0D1
:102A9000F1E00C20009948437B4907E0242000998D
:102AA0004843774902E00098000176490818401928
:102AB000099006950492079407230A9A1046184035
:102AC0000125294681400596F0B2C0006F4C2018C0
:102AD000D2B2D408065D32460A438E43002F114617
:102AE00000D03146002F00D016460022099FBA566A
:102AF0000992D20700D0314601550A99491CCAB241
:102B000019402F468F40D408065D31463943BE43F5
:102B1000089F002F0A4600D03246002F00D00E46F4
:102B20000999890700D5324602550A99891CCAB20B
:102B300019402F468F40D408065D31463943BE43C5
:102B4000089F002F0A4600D03246002F00D00E46C4
:102B50000999490700D5324602550A99C91CCAB2DB
:102B600019402F468F40D408065D31463943BE4395
:102B7000089F002F0A4600D03246002F00D00E4694
:102B80000999090700D5324602550A99091DCAB2AA
:102B900019402F468F40D408065D31463943BE4365
:102BA000089F002F0A4600D03246002F00D00E4664
:102BB0000999C90600D5324602550A99491DCAB27B
:102BC00019402F468F40D408065D31463943BE4335
:102BD000089F002F0A4600D03246002F00D00E4634
:102BE0000999890600D5324602550A99891DCAB24B
:102BF00019402F468F40D408065D31463943BE4305
:102C0000089F002F0A4600D03246002F00D00E4603
:102C10000999490600D5324602550A99C91D0B404B
:102C20009D40C9B2CC08025D1146A9431543002F4F
:102C30000A4600D02A46002F029B059E00D00D4672
:102C40000999002900D42A460255701C082B00D18E
:102C50000BE7C1B2039A891A019A9142079C02D1EB
:102C60000A9A08320A92049A019DA942039E00D151
:102C7000FEE60646FCE60BB0F0BDC046243D000073
:102C8000B0490000C04300004C3F000090002020ED
:102C9000F0B583B00646177838462038C0B25E28B3
:102CA0001CD8082B01D05D0800E00625089801908B
:102CB000541C029501980090F0B2FAB20D461F46DE
:102CC000FFF7B2FE3B462946029D7619601C277825
:102CD0003A46203AD2B25F2A0446EBD303B0F0BDA5
:102CE000F0B583B00191029001200602234D2E60C1
:102CF00047022F600A24204600F0E6FB2E612046A2
:102D000000F0E2FB2F61204600F0DEFB782000F0AF
:102D100013FA2E60204600F0D7FB2F60204600F00B
:102D2000D3FB2F61204600F0CFFB0199481E814163
:102D3000880100F001FA2E60204600F0C5FB2F60EC
:102D4000204600F0C1FB2F61204600F0BDFB029839
:102D500000F0F2F92E60204600F0B6FB2F6020460E
:102D600000F0B2FB2F61204600F0AEFB2E612F6019
:102D7000204600F0A9FB2E6003B0F0BD90320A405F
:102D8000F0B5384B1846543884210160364810227B
:102D900002601C46503C216020210160334DE91C3B
:102DA0001960596001214C061E6826431E605E684A
:102DB00026435E601C46443C822626601E46403EFA
:102DC0008C04274682373760294E2A4F77602A4F76
:102DD0009F602A4F37601F46303F81263E601F4666
:102DE000343F3E601F463C3F3D601F46383F3D60DC
:102DF0001F462C3F3D601F46283F3D601D465C3D01
:102E00002E601D46583D2E601D46603D2E601C3BC9
:102E10001E601B4B80251D601D641A4B1D681543E9
:102E20001D60194A136A2343136213682343136016
:102E30000246303A8905116001464039134A0A605A
:102E40001349016013480168134A0A4302603320A2
:102E5000800112490A6A02430A620A6802430A6050
:102E6000F0BDC04698804240D0320A4081000C003C
:102E7000C48042408100010081000D0081000E00ED
:102E800090120A40A0130A4028100A400C43000088
:102E90000C43400090330A400050500028300A4054
:102EA00080B511481149FEF7BCFC032041021048CF
:102EB00002680A43026001210A02036813430360A7
:102EC000002242611F224262826B07239A4382637F
:102ED0001A02836B93438363826A042313438362DE
:102EE000826A0A43826280BD00200F400C570000B6
:102EF00000320F40F0B581B01C4C1D492046FEF752
:102F0000B9FD1C492046FEF79FFC1B4801681B4A7F
:102F10000A40026000250095204629462A462B4695
:102F2000FEF794FD204629462A46FEF781FD7D20C6
:102F3000C600204631462A46FEF794FD0127009739
:102F4000204629462A462B46FEF780FD2046294684
:102F50003A46FEF76DFD204631463A46FEF782FDC1
:102F6000074887600321016001B0F0BD0020864062
:102F70000E57000014570000043886407F00FFFF02
:102F8000003186400F48002101600320C1430E48F4
:102F90000246083A13680B4013600168012291430E
:102FA0000160110203688B4303601103001F026874
:102FB0000A430260FF20000204490A6882430A6053
:102FC0007047C04608030B4008010B4000E400E0D6
:102FD0000548042101601F214160002181600168D2
:102FE00005220A430260704710E000E010B50D4C66
:102FF0000D492046FEF73EFD0C492046FEF7A4FC95
:103000000B480168012211430160FF2000040949B7
:103010000B68834303208005181808600648026087
:1030200010BDC046000086401C570000205700001D
:103030002810864010E400E00811864010B5154CB9
:1030400015492046FEF748FD14492046FEF720FDAD
:103050000320C103124802688A4302600169114AD1
:103060000A40911C016141690B220A4334218A43C1
:1030700042614168012211404368934359184160FD
:103080009102094B1C680C431C60016811430160EC
:1030900010BDC04600801040345700003657000075
:1030A000009110400000FFFF2890104080B500F014
:1030B00019F8FFF765FEFFF765FFFFF71BFFFFF746
:1030C00095FFFFF7EDFEFFF7B9FFFFF781FFB8208F
:1030D000024900220A5402490A5480BDF006202009
:1030E0003406202070B50C480C4941600C4A5160F0
:1030F0000C4B59600C4C61600C4D69600C4E71605A
:103100000C49016011601960216029603160102054
:10311000FEF782FB70BDC04600080A40030000B104
:1031200000280A40002886400008864000280F40FA
:103130000088104001000026F0B581B00446012748
:10314000390240B2414E0028009101D4316100E0C3
:1031500031600A25284600F0B7F97F02376028461B
:1031600000F0B2F93761600602D40098306101E0E6
:10317000009830600A25284600F0A6F937602846F6
:1031800000F0A2F93761A00602D40098306101E096
:10319000009830600A25284600F096F937602846E6
:1031A00000F092F93761E00602D40098306101E046
:1031B000009830600A25284600F086F937602846D6
:1031C00000F082F93761200702D40098306101E0F5
:1031D000009830600A25284600F076F937602846C6
:1031E00000F072F93761600702D40098306101E0A5
:1031F000009830600A25284600F066F937602846B6
:1032000000F062F93761A00702D40098306101E054
:10321000009830600A25284600F056F937602846A5
:1032200000F052F93761E00702D10098306101E007
:10323000009830600A24204600F046F937602046A6
:1032400000F042F9376101B0F0BDC04690320A404B
:10325000F0B581B00546244C244E254F00290FDDE2
:10326000082004223B46103B1A603860601A214A4D
:103270009042034600DC1346B14207D8034605E0FE
:1032800028D4042038600820386023461A480022D9
:103290001946FEF7E7FB012080031849012D0DDBDD
:1032A000103980220A603860601B12498842044647
:1032B00000DC0C46B54206D8044604E0002D0DD4CF
:1032C00080220A60386001220B482146FEF7CAFBC3
:1032D00001B0F0BD494204200822C3E7103F386026
:1032E000802008606D42DFE7E7030000CE070000A2
:1032F000A0320A4019FCFFFF00208640A0120A40BD
:1033000010B50B480068C0B2012810D1094C2088C4
:10331000401C208000F008F9FEF7E8F920886428B6
:1033200005D300202080012080050349086010BDDE
:1033300020108640A6052020B0320A4080B50A48F9
:103340000068C0B20B280ED10848006808490A88F6
:103350007E2A03D8C0B200F00BF901E000200880FB
:1033600004480121017080BD20901040249110403C
:10337000D2072020D0072020F0B581B016460F4696
:1033800004462448006824490090FDF75DF905468D
:1033900022480560381B8019FDF750FA0646204F79
:1033A0003868FDF74BFA1F4900F08AFB04461E49B6
:1033B000304600F085FB214600F0E8FAFDF7F4F90D
:1033C00038601A490A681618194A964200DC1646EF
:1033D000184A964200DB16460E60174A1378012BF6
:1033E00002D1002616700E60FDF728FA044630461A
:1033F000FDF724FA0146284600F062FB05460098D6
:10340000214600F05DFB294600F0C0FAFDF7CCF93B
:1034100001B0F0BD0400202000004843C405202076
:10342000C00520203333333F9A99993EBC052020B4
:10343000E0B1FFFF204E0000D807202070470000B9
:1034400080B5FFF733FE0120C0030449086004493A
:10345000086004A0FCF798FF80BDC04680E200E051
:1034600000E100E0426F61726420496E6974205B84
:103470005B202A2A204C434B4642202A2A205D5DAD
:103480000D000000B0B57D21090241431E480368CC
:10349000262206E0E41A051F2D686419A2188A4244
:1034A00010D21C460368A34208D10368A34205D189
:1034B0000368A34202D10368A342F3D09C42E9D936
:1034C000E41AEBE7B0BDC046B0B50F490B68400148
:1034D000262206E0E41A0D1F2D686419A218824204
:1034E00010D21C460B68A34208D10B68A34205D139
:1034F0000B68A34202D10B68A342F3D09C42E9D9E6
:10350000E41AEBE7B0BDC04618E000E0C64802216F
:103510000160C648016070471448002141600160A5
:10352000C16081607047C046104801684268826887
:1035300001614261C068704707490A68D20708D034
:103540000A68D20705D00A68D20702D00A68D207F3
:10355000F3D1C2B28A6170470891104003480069F4
:103560007047C046014840697047C046B0072020F8
:10357000F0B585B0614E317800290BD03178012942
:1035800011D153286BD0522870D15D4800785D4925
:10359000522268E055286DD1594800785949552282
:1035A0000A54012763E03178022963D1544A137821
:1035B0005449C854581C1070C0B20B285AD108780E
:1035C0004A78049210188A7802921018CA780392E6
:1035D00013180A79D7184B79DF198C79E719C8794C
:1035E000C7190D7AED194F7A7D19EDB2897A002746
:1035F0008D423CD1039D01900094049853283BD008
:10360000522834D11902881800B2FDF717F90721A2
:10361000CC06214600F054FA414900F051FA4149E4
:10362000086028020299401800B2FDF707F9214608
:1036300000F046FA3A4900F043FA3B490860019825
:1036400000020099401800B2FDF7F8F8214600F09A
:1036500037FA334900F034FA3449086007E0284863
:103660000078284953220A54022700E00027244802
:103670000770377005B0F0BD1902881800B2FDF769
:10368000DDF80721CC06214600F01AFA1E4900F0A9
:1036900017FA1E49086028020299401800B2FDF787
:1036A000CDF8214600F00CFA174D294600F008FA33
:1036B00054490860019800020099401800B2FDF7D3
:1036C000BDF8214600F0FCF9294600F0F9F905465D
:1036D0000F4C20600C4900F02EF9002801D10F4951
:1036E00006E00C49284600F01BF90028BFD10A4922
:1036F000284600F04BF92060B9E7C046A405202019
:10370000A3052020980520200000344390052020A8
:10371000D0052020000034C30000B4430000B4C32F
:103720000000FA44E0072020DC072020E4072020E6
:1037300082B0FFF785FE00200146FFF789FDFEF706
:1037400057FDFEF72BFAFFF7E1FE00F065F87D204C
:103750008000FFF797FE00F06BF824480068FDF743
:103760006DF806462248066022480068FDF766F8B4
:10377000214C20603046FCF73DFF02460B461F4CB3
:1037800020461F49FCF72EFD0125009500260C2739
:103790003046314622463B46FFF77AFA1648006823
:1037A000FCF728FF02460B4620461549FCF71AFD98
:1037B00000951821304622463B46FFF769FA11482A
:1037C000006811490860FCF715FF02460B462046C9
:1037D0000EA1FCF707FD00953046394622463B46D0
:1037E000FFF756FAFFF7A2F8B5E7C046C805202054
:1037F00028062020CC05202030062020100520207F
:1038000040570000940520202C062020793A252ED0
:10381000326620200D0A0000012080040249086061
:10382000024908607047C04680E200E000E100E025
:10383000B0B58EB001A83221FCF7DAFD194C25682D
:10384000FFF78CFE854212D0FFF788FE2060FFF75D
:1038500085FE024601AC14A12046FCF7C3FC012002
:103860000090002024210C232246FFF711FA114C6E
:103870002568FFF777FE854212D0FFF773FE2060C0
:10388000FFF770FE024601AC0BA12046FCF7AAFC34
:1038900001200090002030210C232246FFF7F8F988
:1038A0000EB0B0BD10002020456E636F64657231AC
:1038B0003A25640014002020456E636F64657232FF
:1038C0003A256400F8B5040C8BB2264682B25E43FA
:1038D000104658430D0C370C36040021801916464B
:1038E00079416E43370C36048019264679416E4380
:1038F0008919F8BD4900CA020243100000D0042013
:103900004A0D01D001221043044A490D914201D1D0
:1039100002210843012800D105207047FF0700005D
:1039200010B500F079F8EFF30080800001D5012098
:1039300010BD002010BD10B500F098F8EFF3008026
:103940004000800F012801D0012010BD002010BDD3
:1039500030380A2801D2012070470020704700004B
:1039600010B500290AD00878002807D00548784407
:10397000FDF714FE002801D0002010BD0248784455
:1039800010BD0000021E0000FA1D000070B50125E8
:10399000ED0704004C4020D4441A01D2001B091941
:1039A000C60D4B00F2B2FF2A29D01B0E2CD000020C
:1039B0000C0228432C43D31ADC40051910D2280AE4
:1039C00002D3401C6D0611D0761EF6058019FF2A21
:1039D00000DA70BDC00DC00570BD694000F0CEF8C2
:1039E00001200543C541521C761CE8E764089C4051
:1039F000C90161408900E7D10124A043E4E71B0E1F
:103A0000440200D0034870BD002AFCD1C00FC0079B
:103A100070BD00BF0000C07F0123DB0502000A4328
:103A20000DD4DA4203D49A4207D488427047D84270
:103A300014D4D94212D48842704780427047DA4287
:103A400003D59A42F9D5814270475B004200DA42C1
:103A500004D24A00DA4201D28142704710B5024ACC
:103A6000FDF73EFD10BD00BF090013040123DB0577
:103A700002000A430DD4DA4203D49A4207D48842A2
:103A80007047D84214D4D94212D488427047804239
:103A90007047DA4203D59A42F9D5814270475B00FC
:103AA0004200DA4204D24A00DA4201D2814270472F
:103AB00010B5024AFDF714FD10BD00BF0900160441
:103AC00070B5420064414B005C41120E39D01B0EB0
:103AD00038D0FF2A3CD0FF2B3AD0D2187F3A400290
:103AE0004902400A490A4518ED0106004E43000A02
:103AF000090A48430104731A4019190C4318990F15
:103B000004D05B08012149075B1A521CD80904D371
:103B1000401CF50301D19D0607D0FF2A08D2D50528
:103B200006D0E4072043401970BD0125A843F4E7FF
:103B3000002A01DCE00770BD2402FF202043C005FD
:103B400070BD1B0EFF2A03D0FF2B01D0E00770BD14
:103B5000FF2636064500B54206D84D00B54203D8CB
:103B6000D218FF2A00D0E7E7004870BD0000C07FF0
:103B700070B50125ED0704004C4022D4441A02D24E
:103B80006C40001B0919C60D4B00F2B2FF2A4BD046
:103B90001B0E50D000020C02A8432C43D31ADC4069
:103BA000051B05D5AD0019D36D08761E521E37D002
:103BB000F605280A01D2801970BD70416D0603D048
:103BC00070BD6940FFF7E8FE9C4009026140490072
:103BD00001D0401E70BD0124A04370BD6D081DD0F2
:103BE00001202B0C01D12D0410302B0E01D12D0200
:103BF00008302B0F01D12D01001DAB0F01D1AD00FD
:103C0000801CEB0F01D16D00401C361A121A6D009A
:103C1000680AF5054019012A02DB70BD002070BD5D
:103C2000C036300AC00770BD1B0E440201D1FF2B05
:103C300000D1024870BD002AF0D070BD0000C07FE6
:103C400003B402487844844603BC604759CEFFFF62
:103C50008182838485868788898B8C8D8E8F9192D3
:103C600093959697999A9C9D9FA0A2A3A5A7A8AA71
:103C7000ACAEB0B2B3B5B7B9BCBEC0C2C5C7C9CC93
:103C8000CED1D4D7D9DCDFE2E6E9ECF0F3F7FAFEE7
:103C900002400000000000A00000000005400000FD
:103CA000000000C8000000000C4000000000409C24
:103CB00000000000194000000020BCBE0000000011
:103CC00034400000BFC91B8E00000004B540000056
:103CD000504BCFD06607E2CF010000006C410000DE
:103CE0003E8251AADFEEA73401000000D942000055
:103CF000DCB5A0E23A301F97FFFFFFFFB44500009C
:103D0000FD25A0C8E9A3C14FFFFFFFFFFF3F000053
:103D10000000008000000000FF3F00000000008065
:103D2000000000000000000000000000002F000064
:103D300000000700070000147F147F1400242A7F6E
:103D40002A120062640813230036495522500000ED
:103D50000503000000001C224100000041221C005D
:103D60000014083E08140008083E0808000000A0DF
:103D700060000008080808080000606000000020DB
:103D800010080402003E5149453E0000427F4000B9
:103D9000004261514946002141454B31001814123F
:103DA0007F10002745454539003C4A49493000010C
:103DB0007109050300364949493600064949291E5B
:103DC00000003636000000005636000000081422BD
:103DD00041000014141414140000412214080002BD
:103DE0000151090600324959513E007C1211127CE2
:103DF000007F49494936003E41414122007F41410F
:103E0000221C007F49494941007F09090901003E00
:103E10004149497A007F0808087F0000417F41003E
:103E2000002040413F01007F08142241007F4040B4
:103E30004040007F020C027F007F0408107F003E9C
:103E40004141413E007F09090906003E4151215E82
:103E5000007F091929460046494949310001017F7F
:103E60000101003F4040403F001F2040201F003F15
:103E70004038403F006314081463000708700807C7
:103E800000615149454300007F41410000552A55DA
:103E90002A55000041417F00000402010204004055
:103EA0004040404000000102040000205454547877
:103EB000007F484444380038444444200038444497
:103EC000487F00385454541800087E090102001835
:103ED000A4A4A47C007F080404780000447D400072
:103EE000004080847D00007F102844000000417F56
:103EF0004000007C04180478007C08040478003832
:103F00004444443800FC242424180018242418FCB9
:103F1000007C0804040800485454542000043F4422
:103F20004020003C4040207C001C2040201C003CE5
:103F30004030403C004428102844001CA0A0A07C35
:103F4000004464544C44141414141414000000006D
:103F500000000000000000000000FC000000000065
:103F600002000000000C020C020000000000000033
:103F700090D0BCD0BC900003000300001824FE4485
:103F80008C000302070201001824D8B04C80000303
:103F900000010201C038E438E0000102020102021F
:103FA000080600000000000000000000000000F80B
:103FB0000402000000010204000204F800000004F2
:103FC000020100009060F860900000000100000015
:103FD0002020FC2020000000010000000000000064
:103FE0000000080600000000202020202000000023
:103FF00000000000000000000000000200000000BF
:104000000080601C0200040300000000F8040404A7
:10401000F8000102020201000008FC00000000029A
:104020000302000018844424180003020202020064
:1040300008042424D80001020202010040B088FCD8
:1040400080000000000302003C242424C40001027C
:1040500002020100F824242CC00001020202010027
:104060000C04E41C0400000003000000D8242424F5
:10407000D80001020202010038444444F800000361
:104080000202010000001000000000000200000019
:104090000000200000000000060000000020508802
:1040A0000402000000000102909090909000000037
:1040B00000000000000204885020000201000000FF
:1040C0001804C4241800000002000000F804E4945E
:1040D000F80001020202020000E09CF080000203EE
:1040E0000000030204FC2424D800020302020100A1
:1040F000F80404040C0001020202010004FC0404A0
:10410000F80002030202010004FC24740C00020304
:104110000202030004FC24740C00020302000000ED
:10412000F0080444CC4000010202010004FC2020FD
:10413000FC040203000003020404FC040400020265
:1041400003020200000404FC04040604040300004B
:1041500004FC24D00C0402030200030204FC04004B
:104160000000020302020203FC3CC03CFC0003000E
:104170000300030004FC30C4FC040203020003003B
:10418000F8040404F80001020202010004FC2424E3
:104190001800020302000000F8848404F800010201
:1041A0000207050004FC24649800020302000302D5
:1041B000182424448C000302020201000C04FC04B5
:1041C0000C0000020302000004FC0000FC040001DB
:1041D00002020100047C80E01C04000003000000D7
:1041E0001CE03CE01C00000300030000049C609CF9
:1041F0000400020300030200041CE01C040000028F
:10420000030200000C84641C040002030202030089
:104210000000FE020200000007040400000E30C08F
:104220000000000000010200000202FE0000000485
:104230000407000000040204000000000000000069
:10424000000000000000080808080808000002003C
:1042500000000000000000000040A0A0C00000011D
:104260000202030204FC2020C0000003020201003D
:1042700000C02020600000010202020000C02024D3
:10428000FC0000010202030200C0A0A0C000000167
:10429000020202000020F8242404000203020200AB
:1042A0000040A0A0602000070A0A0A0404FC2020A5
:1042B000C0000203020003020020E400000000022C
:1042C00003020000000020E40000080808070000C6
:1042D00004FC80E020200203020003020404FC002E
:1042E0000000020203020200E020E020C000030000
:1042F0000300030020E02020C000020302000302AC
:1043000000C02020C00000010202010020E02020A7
:10431000C000080F0A02010000C02020E0000001D8
:10432000020A0F0820E040202000020302000000E3
:104330000060A0A020000002020203000020F8207C
:10434000000000000102020020E00020E000000167
:104350000202030220E02080602000000301000030
:104360006080E08060000003000300002060806047
:10437000200002030003020020E0208060200808E3
:10438000070100000020A0602000000203020200DC
:10439000000020DE0200000000070400000000FF13
:1043A00000000000000F00000002DE2000000004FA
:1043B00007000000020102040402000000000000E7
:1043C00000000000000000000000000000000000ED
:1043D000000000F800000000000000333000000082
:1043E00000100C06100C0600000000000000000089
:1043F00040C07840C0784000043F04043F040400FB
:10440000007088FC08300000001820FF211E00000A
:10441000F008F000E018000000211C031E211E001F
:1044200000F00888700000001E21232419272110A5
:1044300010160E0000000000000000000000000048
:10444000000000E0180402000000000718204000EF
:1044500000020418E00000000040201807000000DF
:10446000404080F0804040000202010F0102020043
:10447000000000F0000000000101011F0101010027
:10448000000000000000000080B07000000000008C
:104490000000000000000000000101010101010115
:1044A00000000000000000000030300000000000AC
:1044B0000000000080601804006018060100000081
:1044C00000E010080810E000000F102020100F007E
:1044D000001010F8000000000020203F2020000005
:1044E000007008080888700000302824222130005D
:1044F00000300888884830000018202020110E0065
:104500000000C02010F8000000070424243F24000D
:1045100000F80888880808000019212020110E00E2
:1045200000E0108888180000000F112020110E00F4
:1045300000380808C83808000000003F00000000EC
:104540000070880808887000001C222121221C00AD
:1045500000E010080810E0000000312222110F00D6
:10456000000000C0C000000000000030300000006B
:1045700000000080000000000000806000000000DB
:1045800000008040201008000001020408102000F4
:10459000404040404040400004040404040404003F
:1045A00000081020408000000020100804020100D4
:1045B000007048080808F0000000003036010000D4
:1045C000C030C828E810E0000718272423140B0087
:1045D0000000C038E0000000203C23020227382001
:1045E00008F8888888700000203F202020110E00E5
:1045F000C0300808080838000718202020100800DC
:1046000008F808080810E000203F202020100F00C4
:1046100008F88888E8081000203F20202320180090
:1046200008F88888E8081000203F200003000000F8
:10463000C03008080838000007182020221E020099
:1046400008F808000008F808203F210101213F2058
:10465000000808F8080800000020203F2020000083
:1046600000000808F8080800C08080807F00000073
:1046700008F888C028180800203F200126382000AC
:1046800008F8080000000000203F20202020300013
:1046900008F8F800F8F80800203F003F003F20002D
:1046A00008F830C00008F808203F200007183F0035
:1046B000E01008080810E0000F10202020100F0064
:1046C00008F808080808F000203F21010101000057
:1046D000E01008080810E0000F18242438504F009C
:1046E00008F8888888887000203F2000030C30205C
:1046F00000708808080838000038202121221C009A
:10470000180808F8080818000000203F20000000E2
:1047100008F808000008F808001F202020201F00CB
:104720000878880000C83808000007380E0100002B
:10473000F80800F80008F800033C0700073C0300F5
:10474000081868808068180820302C03032C30205B
:104750000838C800C83808000000203F20000000CA
:1047600010080808C8380800203826212020180022
:10477000000000FE020202000000007F40404000F6
:10478000000C30C000000000000000010638C0002E
:1047900000020202FE000000004040407F000000D6
:1047A00000000402020204000000000000000000FB
:1047B00000000000000000008080808080808080F9
:1047C00000020204000000000000000000000000E1
:1047D00000008080808000000019242222223F20D7
:1047E00008F8008080000000003F112020110E001A
:1047F0000000008080800000000E112020201100A9
:10480000000000808088F800000E112020103F205A
:104810000000808080800000001F222222221300DE
:10482000008080F0888888180020203F2020000029
:104830000000808080808000006B949494936000DE
:1048400008F8008080800000203F210000203F20E9
:1048500000809898000000000020203F20200000E9
:10486000000000809898000000C08080807F0000D9
:1048700008F8000080808000203F24022D302000B6
:10488000000808F8000000000020203F2020000061
:104890008080808080808000203F20003F20003F7B
:1048A0008080008080800000203F210000203F2089
:1048B0000000808080800000001F202020201F003A
:1048C000808000808000000080FFA12020110E0069
:1048D0000000008080808000000E112020A0FF805A
:1048E000808080008080800020203F212000010007
:1048F000000080808080800000332424242419005C
:10490000008080E0808000000000001F2020000068
:104910008080000000808000001F202020103F20A9
:10492000808080000080808000010E300806010039
:1049300080800080008080800F300C030C300F00DE
:1049400000808000808080000020312E0E31200009
:10495000808080000080808080818E701806010039
:1049600000808080808080000021302C2221300057
:1049700000000000807C020200000000003F404078
:1049800000000000FF00000000000000FF00000029
:104990000002027C800000000040403F0000000058
:1049A00000060101020204040000000000000000F3
:1049B00000000000000000000000000000000000F7
:1049C00000000000000000000000000000000000E7
:1049D000000000000000000000F0F0F00000000007
:1049E0000000000000017F01000000000000000046
:1049F000001C1C1C0000000000008060301C8C604B
:104A0000301C0C000000000000000000000000004E
:104A1000000000000000000000000000000000E0B6
:104A20000000000000E000000086E69F8686868683
:104A3000E69F860000011F01010101011F01010025
:104A4000000080C06020F820E0C0000000000307E4
:104A50000C18FF70E18100000000070F10107F109C
:104A60000F0700008060206080000000E020000050
:104A70000F3020309F70DC371030C0000000100E67
:104A800003000718101807000000C02020E0C00035
:104A90000000000080E01F38E88703C43C040000E9
:104AA000070F1810100B070D1010080000808C4C19
:104AB00038000000000000000000000000000000BE
:104AC00000000000000000000000000000000000E6
:104AD00000000000000080E030080400000000003A
:104AE00000FEFF0100000000000000000000030FB6
:104AF0001820400000040830E080000000000000A2
:104B00000000000001FFFE0000000000004020182F
:104B10000F03000000000000000000000000C000C3
:104B200000000000004266663C18FF183C666642C2
:104B30000000000000000300000000000000000072
:104B40000000800000000000001010101010FF1086
:104B50001010101000000000000003000000000012
:104B60000000000000000000000000000000000045
:104B7000000000000000000000808C4C38000000A5
:104B80000000000000000000000000000000000025
:104B90000010101010101010101010000000000075
:104BA0000000000000000000000000000000000005
:104BB00000000000000000000000000000000000F5
:104BC00000001C1C1C000000000000000000000091
:104BD00000000000E0380C000000000080701C03A2
:104BE000000000000060380E01000000000000001E
:104BF000000080C060202060C080000000FEFF0137
:104C00000000000001FFFE000001070E1810101840
:104C10000E0701000000808080C0E000000000005E
:104C20000000000000FFFF00000000000000101066
:104C3000101F1F1010100000008040202020206056
:104C4000C080000000030300804020381F070000E0
:104C5000001C1A1918181818181F00000080C0200E
:104C6000202060C080000000000303001010182FF7
:104C7000E780000000070F10101010180F07000049
:104C8000000000000000C0E0F000000000C0B0889C
:104C9000868180FFFF808000000000000010101F50
:104CA0001F1010000000E060606060606060000045
:104CB00000003F1008080818F0E0000000070B1083
:104CC0001010101C0F030000000080C040202020A6
:104CD000E0C0000000FCFF211008080818F0E00008
:104CE0000001070C18101010080F03000000C0E0AE
:104CF0006060606060E06000000003000000E01899
:104D00000700000000000000001F1F00000000005E
:104D10000080C0602020202060C080000087EF2C31
:104D20001818303068CF830000070F0810101010DB
:104D3000180F07000000C0C020202020C080000005
:104D4000001F3F604040402010FFFE0000000C1C90
:104D5000101010080F030000000000000000000009
:104D60000000000000000000000E0E0E0000000019
:104D700000000000001C1C1C0000000000000000DF
:104D8000000000000000000000000000000C0C000B
:104D90000000000000000000005838000000000083
:104DA00000000000000000804020100000001028DB
:104DB0004482010000000000000000000000010229
:104DC00004081000000000000000000000000000C7
:104DD00000848484848484848484840000000000AB
:104DE00000000000000000000000102040800000D3
:104DF00000000000000000000000018244281000B4
:104E000000001008040201000000000000C0202083
:104E10001010101030E0C0000003030000F0100874
:104E20000C070300000000001C1C1C000000000018
:104E3000000000C0406020202040C00000FCFF01B6
:104E4000F00E03C1FE03807F0001070E0811111050
:104E5000110904020000000080E0E00000000000F2
:104E60000000807C4340477FF880000010181F102E
:104E700000000000131F1C1020E0E0202020206014
:104E8000C080000000FFFF10101010182FE78000F6
:104E9000101F1F1010101010180F0700000080C006
:104EA000402020202060E00000FCFF010000000006
:104EB000000001000001070E181010100804030084
:104EC00020E0E02020202040C080000000FFFF0004
:104ED0000000000001FFFE00101F1F101010180836
:104EE0000E07010020E0E02020202020206080002C
:104EF00000FFFF101010107C00000000101F1F109A
:104F0000101010101018060020E0E02020202020B3
:104F10006060800000FFFF101010107C0000010096
:104F2000101F1F100000000000000000000080C0E3
:104F30006020202040E0000000FCFF010000404015
:104F4000C0C140400001070E181010100F0F0000E4
:104F500020E0E0200000000020E0E02000FFFF1043
:104F60001010101010FFFF00101F1F100000000095
:104F7000101F1F100000202020E0E0202020000053
:104F80000000000000FFFF00000000000000101003
:104F9000101F1F101010000000000000202020E053
:104FA000E020202000000000000000FFFF000000C3
:104FB0000060E0808080C07F3F00000020E0E020B3
:104FC000000020A06020200000FFFF30187CE3C01C
:104FD00000000000101F1F10000001131F1C1810FC
:104FE00020E0E020000000000000000000FFFF00C3
:104FF0000000000000000000101F1F101010101013
:105000001018060020E0E0E000000000E0E0E020F2
:1050100000FF013FFEC0E01E01FFFF00101F100057
:10502000031F0300101F1F1020E0E0C0000000005D
:105030000020E02000FF0003071C78E08000FF0054
:10504000101F100000000000030F1F00000080C0B0
:1050500060202060C080000000FEFF010000000012
:1050600000FFFE000001070E181010180C070100C9
:1050700020E0E0202020202060C0800000FFFF20F2
:1050800020202020301F0F00101F1F1000000000E4
:1050900000000000000080C060202060C080000090
:1050A00000FEFF010000000000FFFE000001070EEF
:1050B0001111133C7C67210020E0E02020202020FB
:1050C00060C0800000FFFF101030F0D0080F070014
:1050D000101F1F10000000030F1C10100080C06084
:1050E000202020204040E00000070F0C181830302E
:1050F00060E08100001F0C0810101010180F07004E
:105100008060202020E0E02020206080010000005E
:1051100000FFFF000000000100000000101F1F1032
:105120000000000020E0E020000000000020E0205F
:1051300000FFFF00000000000000FF0000070F1844
:1051400010101010100807002060E0E020000000A0
:1051500020E060200000077FF88000807C030000D2
:1051600000000000071F1C070000000020E0E020F6
:1051700000E0E0200020E0200007FFF8E01FFFFC37
:10518000E01F00000000031F0300011F03000000D8
:10519000002060E0A0000020E0602000000000038C
:1051A0008F7CF8C6010000000010181E13000117C4
:1051B0001F1810002060E0E02000000020E06020C8
:1051C000000001073EF8E018070000000000001092
:1051D000101F1F101000000000806020202020A061
:1051E000E0E0200000000000C0F03E0F03000000DF
:1051F00000101C1F171010101018060000000000EF
:1052000000FC0404040404000000000000FF00008F
:105210000000000000000000007F404040404000CF
:10522000000010E00000000000000000000000008E
:10523000031C60800000000000000000000000036C
:105240000C70800000000404040404FC0000000052
:1052500000000000000000FF0000000000004040CF
:105260004040407F0000000000000010080C040CCB
:105270000810000000000000000000000000000016
:10528000000000000000000000000000000000001E
:10529000000000000000000000000000000000000E
:1052A00000000000808080808080808080808080FE
:1052B00000000004040808000000000000000000D6
:1052C00000000000000000000000000000000000DE
:1052D00000000000000000000000000000000000CE
:1052E000000098D844642424FCF80000000F1F1824
:1052F000101010081F1F10180020E0F00000000020
:10530000000000000000FFFF180804040CF8F00083
:1053100000001F0F18101010180F030000000000ED
:10532000000000000000000000E0F8180404043C45
:105330003800000000030F0C1010101008060000C9
:105340000000000000000020E0F0000000E0F81C79
:1053500004040408FFFF000000030F1810101008D9
:105360001F0F080000000000000000000000000007
:105370000000E0F8484444444C7870000000030FFB
:105380000C181010100804000000000080C06020FD
:1053900020E0C00000040404FFFF04040404000033
:1053A000000010101F1F101010000000000000006F
:1053B0000000000000000000000070F88C04048C65
:1053C000F874040C007076CF8D8D8D89C8787000CC
:1053D0000020E0F000000000000000000000FFFFDF
:1053E00008040404FCF8000000101F1F1000001047
:1053F0001F1F10000000000000606000000000009F
:105400000000040404FCFC00000000000000101078
:10541000101F1F10101000000000000000000060AE
:105420006000000000000000040404FCFC00000018
:105430000000C0C08080C07F3F0000000020E0F07E
:1054400000000000000000000000FFFF80C0F41C0E
:105450000404000000101F1F1100031F1C10100087
:105460000000202020E0F00000000000000000000C
:1054700000FFFF000000000000001010101F1F10B0
:1054800010100000000000000000000000000000FC
:1054900004FCFC0804FCFC0804FCFC00101F1F10AA
:1054A000001F1F10001F1F10000000000000000060
:1054B000000000000004FCFC08080404FCF80000E4
:1054C00000101F1F100000101F1F10000000000020
:1054D000000000000000000000E0F0180C04040CC4
:1054E00018F0E00000030F0C101010100C0F030058
:1054F0000000000000000000000000000004FCFCB0
:10550000080404040CF8F0000080FFFF88901010DD
:105510001C0F03000000000000000000000000005D
:1055200000E0F81C04040408F8FC000000030F1855
:1055300010109088FFFF80000000000000000000B5
:1055400000000000040404FCFC100804040C0C001F
:105550001010101F1F1010100000000000000000AD
:10556000000000000000000000003078CCC48484FB
:10557000840C1C0000001E1810101011190F0600DA
:105580000000000000C0000000000000000404044F
:10559000FFFF040404000000000000000F1F1010B3
:1055A000100C0000000000000000000000000000DF
:1055B0000004FCFE00000004FCFE000000000F1FC1
:1055C000181010081F0F0800000000000000000065
:1055D0000000000000040C3CFCC40000C43C0C04AF
:1055E00000000000010F1E0E01000000000000007E
:1055F0000000000000000000043CFCC400E47CFC4F
:1056000084807C040000071F070000071F070000BC
:105610000000000000000000000000000004041C66
:105620007CE4C0341C0404000010101C1601131F7D
:105630001C18100000000000000000000000000026
:1056400000040C3CFCC400C43C0404000000C08006
:10565000C1370E0100000000000000000000000043
:105660000000000000001C0404C4F47C1C040000C2
:105670000000101C1F17111010180E000000000071
:10568000000000F80C04000000000000001028EFEB
:1056900000000000000000000000003F604000002B
:1056A000000000000000FF000000000000000000FB
:1056B0000000FF0000000000000000000000FF00EC
:1056C000000000000000040CF800000000000000D2
:1056D00000000000EF281000000000000000406003
:1056E0003F0000000000000000180602020408103D
:1056F0002020300800000000000000000000000032
:105700000000000000000000000000000800080386
:1057100001000000E80300000000010008001F0075
:10572000020000000F270000010000000000000040
:10573000000000000400000018000000003000001D
:10574000783A252E326620200D0A00000000000065
:1057500090570000000020201800000020010000E9
:10576000A857000018002020D00D000048010000BC
:105770001C00000043000000F8FFFFFF0C000000C9
:105780000E0000000F0000002E00000000000000CE
:1057900000006040000000BFAE4781BF00001AC299
:0857A000FF000000FF00000003
:04000005000000C136
:00000001FF
